S016000043616C63756C61746F725F6170702E7372656364
S11300000C942A000C9447000C9447000C9447006D
S11300100C9447000C9447000C9447000C94470040
S11300200C9447000C9447000C9447000C94470030
S11300300C9447000C9447000C9447000C94470020
S11300400C9447000C9447000C9447000C94470010
S11300500C94470011241FBECFE5D8E0DEBFCDBF0E
S113006010E0A0E6B0E0EAE3F7E002C005900D92EC
S1130070A037B107D9F710E0A0E7B0E001C01D92A6
S1130080A037B107E1F70E943F010C949B030C9445
S113009000002F923F924F925F926F927F928F92C5
S11300A09F92AF92BF92CF92DF92EF92FF920F9303
S11300B01F93CF93DF93CDB7DEB761970FB6F89454
S11300C0DEBF0FBECDBFF62E598B488B662309F4D5
S11300D0BDC0A82EB92E00E09924CC2480E090E085
S11300E0DC01442455243201F50111915F01212FD3
S11300F020532A30B0F4BC01CD012AE030E040E0C6
S113010050E00E945A03AB01BC01812F90E0C097DC
S1130110AA2797FDA095BA2F840F951FA61FB71F76
S11301201BC0EDE0F0E0EC0FFD1FE90DF11D1083A5
S11301309394EC2DF0E0EE0FFF1FEE0FFF1F21E074
S113014030E02C0F3D1FE20FF31F80839183A283C5
S1130150B383C394D301C2010F5F0F1529F699200D
S113016009F474C089847A846B845C8409811A815B
S11301702B813C81CD80DE80EF80F8840F2EFDE062
S11301802F2E3324F02D2C0E3D1E51014424439474
S1130190D5018D915D018D3221F18E3230F48A3298
S11301A051F08B3209F04DC013C08F32C1F18D3341
S11301B009F047C041C0C901B801A70196010E94D6
S11301C05A038B019C01C82CD72CE62CF52C39C082
S11301D00C0D1D1D2E1D3F1DC82CD72CE62CF52CF7
S11301E030C00C151D052E053F0580F4E889F989FA
S11301F04082D701C601801B910BA20BB30B8C016B
S11302009D01C82CD72CE62CF52C1BC00C191D09FC
S11302102E093F09C82CD72CE62CF52C12C0C90195
S1130220B801A70196010E94790389019A01C82C9B
S1130230D72CE62CF52C05C0602F712F822F932F1D
S113024005C08A2D8219891508F4A2CF61960FB6CC
S1130250F894DEBF0FBECDBFDF91CF911F910F91F8
S1130260FF90EF90DF90CF90BF90AF909F908F90D2
S11302707F906F905F904F903F902F900895CF9311
S1130280DF93CDB7DEB765970FB6F894DEBF0FBE28
S1130290CDBF0E9488020E949C011D8AFF24F39412
S11302A000E0EE24E39401C0FE2C0E94A501182F67
S11302B08FE39CE90197F1F700C00000133429F49F
S11302C00E9450031D8A00E0F0CF1F3F99F0FF20E9
S11302D0A1F080E0602F0E944303E1E0F0E0EC0F26
S11302E0FD1FE00FF11D10830F5F812F0E9442025A
S11302F0FF2403C0FF20C1F2D8CF1D33B1F68E2DE9
S113030060E00E944303CE010196602FAE014B5E74
S11303105F4F0E9449004B015C018D89813039F4A3
S11303208DE20E9442028E2D6E2D0E944303C50170
S1130330B4010E94D802B9CF8A988B988C988D9872
S1130340BC9ABD9ABE9ABF9A0895E0E088B38F70B4
S113035088BBEE2321F488B3806E88BB0CC0E130E7
S113036021F488B3806D88BB0BC0E23021F488B3DC
S1130370806B88BB05C0E33019F488B3806788BB01
S113038080B382FD09C0F0E0EE0FFF1FEE0FFF1FE8
S1130390E05AFF4F8081089580B383FD09C0F0E0E7
S11303A0EE0FFF1FEE0FFF1FE05AFF4F81810895EC
S11303B080B384FD09C0F0E0EE0FFF1FEE0FFF1FB6
S11303C0E05AFF4F8281089580B385FD09C0F0E0B3
S11303D0EE0FFF1FEE0FFF1FE05AFF4F83810895BA
S11303E08FE99FE00197F1F700C00000EF5FE43070
S11303F009F0ACCF8FEF0895D99884FF02C0DB9A3F
S113040001C0DB9885FF02C0DC9A01C0DC9886FF3E
S113041002C0DD9A01C0DD98882314F4DE9A01C07D
S1130420DE98DA9AEFE9FFE03197F1F700C00000B7
S1130430DA98EFE9FFE03197F1F700C0000080FFA0
S113044002C0DB9A01C0DB9881FF02C0DC9A01C0C4
S1130450DC9882FF02C0DD9A01C0DD9883FF02C0F0
S1130460DE9A01C0DE98DA9A8FE99FE00197F1F7EE
S113047000C00000DA98EFE9FFE03197F1F700C01F
S113048000000895D99A84FF02C0DB9A01C0DB986A
S113049085FF02C0DC9A01C0DC9886FF02C0DD9AA9
S11304A001C0DD98882314F4DE9A01C0DE98DA9A3C
S11304B0EFE9FFE03197F1F700C00000DA98EFE9C7
S11304C0FFE03197F1F700C0000080FF02C0DB9A23
S11304D001C0DB9881FF02C0DC9A01C0DC9882FF76
S11304E002C0DD9A01C0DD9883FF02C0DE9A01C01C
S11304F0DE98DA9A8FE99FE00197F1F700C00000D7
S1130500DA98EFE9FFE03197F1F700C000000895B1
S11305108AB38E678ABB83E00E9442028FE79EE320
S11305200197F1F700C0000083E00E944202AFE7A8
S1130530BEE31197F1F700C0000083E00E9442027D
S11305408FE79EE30197F1F700C0000082E00E946C
S1130550FC0188E20E94FC0188E00E94FC0181E029
S11305600E94FC0186E00E94FC018CE00E94FC01D8
S11305708FEF99EFA0E081509040A040E1F700C0D8
S1130580000008950F931F93CF938C01FC01808189
S1130590882351F0C0E00E944202CF5FF801EC0FC3
S11305A0F11D80818823B9F7CF911F910F91089590
S11305B08F929F92AF92BF92EF92FF921F93CF932D
S11305C0DF93CDB7DEB72A970FB6F894DEBF0FBE20
S11305D0CDBFDC01CB01AE014F5F5F4F2AE0FA01D2
S11305E011922A95E9F70097A105B10521F480E35A
S11305F00E94420238C010E00F2EFAE08F2EF0E085
S11306009F2EF0E0AF2EF0E0BF2EF02DE12EFF2460
S1130610E7FCF09421E030E02C0F3D1FE20EF31EC6
S1130620BC01CD01A50194010E947903605DF7012D
S11306306083822F932FA42FB52F1F5F0097A105EE
S1130640B10521F711507AF0E12FFF27E7FDF0956E
S113065021E030E02C0F3D1FE20FF31F80810E9448
S11306604202115088F72A960FB6F894DEBF0FBEE7
S1130670CDBFDF91CF911F91FF90EF90BF90AF90CE
S11306809F908F900895882329F0813021F4962F2C
S1130690905C01C0962F892F80680E94FC01089508
S11306A081E00E94FC018FE99FE00197F1F700C00F
S11306B000000895629FD001739FF001829FE00DB6
S11306C0F11D649FE00DF11D929FF00D839FF00DCD
S11306D0749FF00D659FF00D9927729FB00DE11D79
S11306E0F91F639FB00DE11DF91FBD01CF01112456
S11306F00895A1E21A2EAA1BBB1BFD010DC0AA1F5F
S1130700BB1FEE1FFF1FA217B307E407F50720F076
S1130710A21BB30BE40BF50B661F771F881F991FF1
S11307201A9469F760957095809590959B01AC013A
S10D0730BD01CF010895F894FFCF36
S113073A3738392F3435362A3132332D43303D2B6D
S9030000FC
